{
  "_format": "hh-sol-artifact-1",
  "contractName": "FileStorage",
  "sourceName": "contracts/FileStorage.sol",
  "abi": [
    {
      "inputs": [
        {
          "internalType": "uint256",
          "name": "",
          "type": "uint256"
        }
      ],
      "name": "files",
      "outputs": [
        {
          "internalType": "string",
          "name": "hash",
          "type": "string"
        },
        {
          "internalType": "string",
          "name": "name",
          "type": "string"
        },
        {
          "internalType": "address",
          "name": "uploader",
          "type": "address"
        }
      ],
      "stateMutability": "view",
      "type": "function"
    },
    {
      "inputs": [
        {
          "internalType": "uint256",
          "name": "_index",
          "type": "uint256"
        }
      ],
      "name": "getFile",
      "outputs": [
        {
          "internalType": "string",
          "name": "",
          "type": "string"
        },
        {
          "internalType": "string",
          "name": "",
          "type": "string"
        },
        {
          "internalType": "address",
          "name": "",
          "type": "address"
        }
      ],
      "stateMutability": "view",
      "type": "function"
    },
    {
      "inputs": [],
      "name": "getFileCount",
      "outputs": [
        {
          "internalType": "uint256",
          "name": "",
          "type": "uint256"
        }
      ],
      "stateMutability": "view",
      "type": "function"
    },
    {
      "inputs": [
        {
          "internalType": "string",
          "name": "_hash",
          "type": "string"
        },
        {
          "internalType": "string",
          "name": "_name",
          "type": "string"
        }
      ],
      "name": "uploadFile",
      "outputs": [],
      "stateMutability": "nonpayable",
      "type": "function"
    }
  ],
  "bytecode": "0x608060405234801561001057600080fd5b50610bad806100206000396000f3fe608060405234801561001057600080fd5b506004361061004c5760003560e01c80632bfda31314610051578063996d50bf14610083578063bab50cc91461009f578063f4c714b4146100bd575b600080fd5b61006b60048036038101906100669190610550565b6100ef565b60405161007a9392919061064e565b60405180910390f35b61009d600480360381019061009891906107c8565b6102bb565b005b6100a7610390565b6040516100b4919061084f565b60405180910390f35b6100d760048036038101906100d29190610550565b61039c565b6040516100e69392919061064e565b60405180910390f35b606080600080600085815481106101095761010861086a565b5b9060005260206000209060030201604051806060016040529081600082018054610132906108c8565b80601f016020809104026020016040519081016040528092919081815260200182805461015e906108c8565b80156101ab5780601f10610180576101008083540402835291602001916101ab565b820191906000526020600020905b81548152906001019060200180831161018e57829003601f168201915b505050505081526020016001820180546101c4906108c8565b80601f01602080910402602001604051908101604052809291908181526020018280546101f0906108c8565b801561023d5780601f106102125761010080835404028352916020019161023d565b820191906000526020600020905b81548152906001019060200180831161022057829003601f168201915b505050505081526020016002820160009054906101000a900473ffffffffffffffffffffffffffffffffffffffff1673ffffffffffffffffffffffffffffffffffffffff1673ffffffffffffffffffffffffffffffffffffffff16815250509050806000015181602001518260400151935093509350509193909250565b600060405180606001604052808481526020018381526020013373ffffffffffffffffffffffffffffffffffffffff168152509080600181540180825580915050600190039060005260206000209060030201600090919091909150600082015181600001908161032c9190610aa5565b5060208201518160010190816103429190610aa5565b5060408201518160020160006101000a81548173ffffffffffffffffffffffffffffffffffffffff021916908373ffffffffffffffffffffffffffffffffffffffff16021790555050505050565b60008080549050905090565b600081815481106103ac57600080fd5b90600052602060002090600302016000915090508060000180546103cf906108c8565b80601f01602080910402602001604051908101604052809291908181526020018280546103fb906108c8565b80156104485780601f1061041d57610100808354040283529160200191610448565b820191906000526020600020905b81548152906001019060200180831161042b57829003601f168201915b50505050509080600101805461045d906108c8565b80601f0160208091040260200160405190810160405280929190818152602001828054610489906108c8565b80156104d65780601f106104ab576101008083540402835291602001916104d6565b820191906000526020600020905b8154815290600101906020018083116104b957829003601f168201915b5050505050908060020160009054906101000a900473ffffffffffffffffffffffffffffffffffffffff16905083565b6000604051905090565b600080fd5b600080fd5b6000819050919050565b61052d8161051a565b811461053857600080fd5b50565b60008135905061054a81610524565b92915050565b60006020828403121561056657610565610510565b5b60006105748482850161053b565b91505092915050565b600081519050919050565b600082825260208201905092915050565b60005b838110156105b757808201518184015260208101905061059c565b60008484015250505050565b6000601f19601f8301169050919050565b60006105df8261057d565b6105e98185610588565b93506105f9818560208601610599565b610602816105c3565b840191505092915050565b600073ffffffffffffffffffffffffffffffffffffffff82169050919050565b60006106388261060d565b9050919050565b6106488161062d565b82525050565b6000606082019050818103600083015261066881866105d4565b9050818103602083015261067c81856105d4565b905061068b604083018461063f565b949350505050565b600080fd5b600080fd5b7f4e487b7100000000000000000000000000000000000000000000000000000000600052604160045260246000fd5b6106d5826105c3565b810181811067ffffffffffffffff821117156106f4576106f361069d565b5b80604052505050565b6000610707610506565b905061071382826106cc565b919050565b600067ffffffffffffffff8211156107335761073261069d565b5b61073c826105c3565b9050602081019050919050565b82818337600083830152505050565b600061076b61076684610718565b6106fd565b90508281526020810184848401111561078757610786610698565b5b610792848285610749565b509392505050565b600082601f8301126107af576107ae610693565b5b81356107bf848260208601610758565b91505092915050565b600080604083850312156107df576107de610510565b5b600083013567ffffffffffffffff8111156107fd576107fc610515565b5b6108098582860161079a565b925050602083013567ffffffffffffffff81111561082a57610829610515565b5b6108368582860161079a565b9150509250929050565b6108498161051a565b82525050565b60006020820190506108646000830184610840565b92915050565b7f4e487b7100000000000000000000000000000000000000000000000000000000600052603260045260246000fd5b7f4e487b7100000000000000000000000000000000000000000000000000000000600052602260045260246000fd5b600060028204905060018216806108e057607f821691505b6020821081036108f3576108f2610899565b5b50919050565b60008190508160005260206000209050919050565b60006020601f8301049050919050565b600082821b905092915050565b60006008830261095b7fffffffffffffffffffffffffffffffffffffffffffffffffffffffffffffffff8261091e565b610965868361091e565b95508019841693508086168417925050509392505050565b6000819050919050565b60006109a261099d6109988461051a565b61097d565b61051a565b9050919050565b6000819050919050565b6109bc83610987565b6109d06109c8826109a9565b84845461092b565b825550505050565b600090565b6109e56109d8565b6109f08184846109b3565b505050565b5b81811015610a1457610a096000826109dd565b6001810190506109f6565b5050565b601f821115610a5957610a2a816108f9565b610a338461090e565b81016020851015610a42578190505b610a56610a4e8561090e565b8301826109f5565b50505b505050565b600082821c905092915050565b6000610a7c60001984600802610a5e565b1980831691505092915050565b6000610a958383610a6b565b9150826002028217905092915050565b610aae8261057d565b67ffffffffffffffff811115610ac757610ac661069d565b5b610ad182546108c8565b610adc828285610a18565b600060209050601f831160018114610b0f5760008415610afd578287015190505b610b078582610a89565b865550610b6f565b601f198416610b1d866108f9565b60005b82811015610b4557848901518255600182019150602085019450602081019050610b20565b86831015610b625784890151610b5e601f891682610a6b565b8355505b6001600288020188555050505b50505050505056fea2646970667358221220997233f634f40c699aaf9d2c621b06671370eacca1a54728cef7d1e1d7262d5c64736f6c63430008140033",
  "linkReferences": {},
  "deployedLinkReferences": {}
}