{
  "_format": "hh-sol-artifact-1",
  "contractName": "FileSharing",
  "sourceName": "contracts/FileSharing.sol",
  "abi": [
    {
      "anonymous": false,
      "inputs": [
        {
          "indexed": true,
          "internalType": "address",
          "name": "user",
          "type": "address"
        },
        {
          "indexed": false,
          "internalType": "uint256",
          "name": "fileIndex",
          "type": "uint256"
        }
      ],
      "name": "FileDeleted",
      "type": "event"
    },
    {
      "anonymous": false,
      "inputs": [
        {
          "indexed": true,
          "internalType": "address",
          "name": "user",
          "type": "address"
        },
        {
          "indexed": false,
          "internalType": "string",
          "name": "fileName",
          "type": "string"
        },
        {
          "indexed": false,
          "internalType": "string",
          "name": "fileHash",
          "type": "string"
        }
      ],
      "name": "FileUploaded",
      "type": "event"
    },
    {
      "inputs": [
        {
          "internalType": "uint256",
          "name": "_index",
          "type": "uint256"
        }
      ],
      "name": "deleteFile",
      "outputs": [],
      "stateMutability": "nonpayable",
      "type": "function"
    },
    {
      "inputs": [],
      "name": "getMyFiles",
      "outputs": [
        {
          "components": [
            {
              "internalType": "string",
              "name": "fileName",
              "type": "string"
            },
            {
              "internalType": "string",
              "name": "fileHash",
              "type": "string"
            }
          ],
          "internalType": "struct FileSharing.File[]",
          "name": "",
          "type": "tuple[]"
        }
      ],
      "stateMutability": "view",
      "type": "function"
    },
    {
      "inputs": [
        {
          "internalType": "string",
          "name": "_fileName",
          "type": "string"
        },
        {
          "internalType": "string",
          "name": "_fileHash",
          "type": "string"
        }
      ],
      "name": "uploadFile",
      "outputs": [],
      "stateMutability": "nonpayable",
      "type": "function"
    }
  ],
  "bytecode": "0x608060405234801561001057600080fd5b506110b7806100206000396000f3fe608060405234801561001057600080fd5b50600436106100415760003560e01c806390a4b0df14610046578063996d50bf14610064578063c5b4200614610080575b600080fd5b61004e61009c565b60405161005b919061080b565b60405180910390f35b61007e60048036038101906100799190610976565b61025b565b005b61009a60048036038101906100959190610a24565b610359565b005b60606000803373ffffffffffffffffffffffffffffffffffffffff1673ffffffffffffffffffffffffffffffffffffffff168152602001908152602001600020805480602002602001604051908101604052809291908181526020016000905b82821015610252578382906000526020600020906002020160405180604001604052908160008201805461012f90610a80565b80601f016020809104026020016040519081016040528092919081815260200182805461015b90610a80565b80156101a85780601f1061017d576101008083540402835291602001916101a8565b820191906000526020600020905b81548152906001019060200180831161018b57829003601f168201915b505050505081526020016001820180546101c190610a80565b80601f01602080910402602001604051908101604052809291908181526020018280546101ed90610a80565b801561023a5780601f1061020f5761010080835404028352916020019161023a565b820191906000526020600020905b81548152906001019060200180831161021d57829003601f168201915b505050505081525050815260200190600101906100fc565b50505050905090565b6000803373ffffffffffffffffffffffffffffffffffffffff1673ffffffffffffffffffffffffffffffffffffffff168152602001908152602001600020604051806040016040528084815260200183815250908060018154018082558091505060019003906000526020600020906002020160009091909190915060008201518160000190816102ec9190610c5d565b5060208201518160010190816103029190610c5d565b5050503373ffffffffffffffffffffffffffffffffffffffff167f2f82310531f67ec4eae39b4f0d4e2ea9a5e6da4bb8f084adb414ec441b761c5d838360405161034d929190610d79565b60405180910390a25050565b6000803373ffffffffffffffffffffffffffffffffffffffff1673ffffffffffffffffffffffffffffffffffffffff1681526020019081526020016000208054905081106103dc576040517f08c379a00000000000000000000000000000000000000000000000000000000081526004016103d390610dfc565b60405180910390fd5b60008190505b60016000803373ffffffffffffffffffffffffffffffffffffffff1673ffffffffffffffffffffffffffffffffffffffff168152602001908152602001600020805490506104309190610e4b565b81101561053f576000803373ffffffffffffffffffffffffffffffffffffffff1673ffffffffffffffffffffffffffffffffffffffff1681526020019081526020016000206001826104829190610e7f565b8154811061049357610492610eb3565b5b90600052602060002090600202016000803373ffffffffffffffffffffffffffffffffffffffff1673ffffffffffffffffffffffffffffffffffffffff16815260200190815260200160002082815481106104f1576104f0610eb3565b5b9060005260206000209060020201600082018160000190816105139190610ef8565b50600182018160010190816105289190610ef8565b50905050808061053790610fe0565b9150506103e2565b506000803373ffffffffffffffffffffffffffffffffffffffff1673ffffffffffffffffffffffffffffffffffffffff16815260200190815260200160002080548061058e5761058d611028565b5b6001900381819060005260206000209060020201600080820160006105b39190610618565b6001820160006105c39190610618565b505090553373ffffffffffffffffffffffffffffffffffffffff167fd9f8d449398cb5e4cbe5d3c737755fc75cc6eca4c95fc74b773af3c8953d59ca8260405161060d9190611066565b60405180910390a250565b50805461062490610a80565b6000825580601f106106365750610655565b601f0160209004906000526020600020908101906106549190610658565b5b50565b5b80821115610671576000816000905550600101610659565b5090565b600081519050919050565b600082825260208201905092915050565b6000819050602082019050919050565b600081519050919050565b600082825260208201905092915050565b60005b838110156106db5780820151818401526020810190506106c0565b60008484015250505050565b6000601f19601f8301169050919050565b6000610703826106a1565b61070d81856106ac565b935061071d8185602086016106bd565b610726816106e7565b840191505092915050565b6000604083016000830151848203600086015261074e82826106f8565b9150506020830151848203602086015261076882826106f8565b9150508091505092915050565b60006107818383610731565b905092915050565b6000602082019050919050565b60006107a182610675565b6107ab8185610680565b9350836020820285016107bd85610691565b8060005b858110156107f957848403895281516107da8582610775565b94506107e583610789565b925060208a019950506001810190506107c1565b50829750879550505050505092915050565b600060208201905081810360008301526108258184610796565b905092915050565b6000604051905090565b600080fd5b600080fd5b600080fd5b600080fd5b7f4e487b7100000000000000000000000000000000000000000000000000000000600052604160045260246000fd5b610883826106e7565b810181811067ffffffffffffffff821117156108a2576108a161084b565b5b80604052505050565b60006108b561082d565b90506108c1828261087a565b919050565b600067ffffffffffffffff8211156108e1576108e061084b565b5b6108ea826106e7565b9050602081019050919050565b82818337600083830152505050565b6000610919610914846108c6565b6108ab565b90508281526020810184848401111561093557610934610846565b5b6109408482856108f7565b509392505050565b600082601f83011261095d5761095c610841565b5b813561096d848260208601610906565b91505092915050565b6000806040838503121561098d5761098c610837565b5b600083013567ffffffffffffffff8111156109ab576109aa61083c565b5b6109b785828601610948565b925050602083013567ffffffffffffffff8111156109d8576109d761083c565b5b6109e485828601610948565b9150509250929050565b6000819050919050565b610a01816109ee565b8114610a0c57600080fd5b50565b600081359050610a1e816109f8565b92915050565b600060208284031215610a3a57610a39610837565b5b6000610a4884828501610a0f565b91505092915050565b7f4e487b7100000000000000000000000000000000000000000000000000000000600052602260045260246000fd5b60006002820490506001821680610a9857607f821691505b602082108103610aab57610aaa610a51565b5b50919050565b60008190508160005260206000209050919050565b60006020601f8301049050919050565b600082821b905092915050565b600060088302610b137fffffffffffffffffffffffffffffffffffffffffffffffffffffffffffffffff82610ad6565b610b1d8683610ad6565b95508019841693508086168417925050509392505050565b6000819050919050565b6000610b5a610b55610b50846109ee565b610b35565b6109ee565b9050919050565b6000819050919050565b610b7483610b3f565b610b88610b8082610b61565b848454610ae3565b825550505050565b600090565b610b9d610b90565b610ba8818484610b6b565b505050565b5b81811015610bcc57610bc1600082610b95565b600181019050610bae565b5050565b601f821115610c1157610be281610ab1565b610beb84610ac6565b81016020851015610bfa578190505b610c0e610c0685610ac6565b830182610bad565b50505b505050565b600082821c905092915050565b6000610c3460001984600802610c16565b1980831691505092915050565b6000610c4d8383610c23565b9150826002028217905092915050565b610c66826106a1565b67ffffffffffffffff811115610c7f57610c7e61084b565b5b610c898254610a80565b610c94828285610bd0565b600060209050601f831160018114610cc75760008415610cb5578287015190505b610cbf8582610c41565b865550610d27565b601f198416610cd586610ab1565b60005b82811015610cfd57848901518255600182019150602085019450602081019050610cd8565b86831015610d1a5784890151610d16601f891682610c23565b8355505b6001600288020188555050505b505050505050565b600082825260208201905092915050565b6000610d4b826106a1565b610d558185610d2f565b9350610d658185602086016106bd565b610d6e816106e7565b840191505092915050565b60006040820190508181036000830152610d938185610d40565b90508181036020830152610da78184610d40565b90509392505050565b7f496e76616c69642066696c6520696e6465780000000000000000000000000000600082015250565b6000610de6601283610d2f565b9150610df182610db0565b602082019050919050565b60006020820190508181036000830152610e1581610dd9565b9050919050565b7f4e487b7100000000000000000000000000000000000000000000000000000000600052601160045260246000fd5b6000610e56826109ee565b9150610e61836109ee565b9250828203905081811115610e7957610e78610e1c565b5b92915050565b6000610e8a826109ee565b9150610e95836109ee565b9250828201905080821115610ead57610eac610e1c565b5b92915050565b7f4e487b7100000000000000000000000000000000000000000000000000000000600052603260045260246000fd5b600081549050610ef181610a80565b9050919050565b818103610f06575050610fde565b610f0f82610ee2565b67ffffffffffffffff811115610f2857610f2761084b565b5b610f328254610a80565b610f3d828285610bd0565b6000601f831160018114610f6c5760008415610f5a578287015490505b610f648582610c41565b865550610fd7565b601f198416610f7a87610ab1565b9650610f8586610ab1565b60005b82811015610fad57848901548255600182019150600185019450602081019050610f88565b86831015610fca5784890154610fc6601f891682610c23565b8355505b6001600288020188555050505b5050505050505b565b6000610feb826109ee565b91507fffffffffffffffffffffffffffffffffffffffffffffffffffffffffffffffff820361101d5761101c610e1c565b5b600182019050919050565b7f4e487b7100000000000000000000000000000000000000000000000000000000600052603160045260246000fd5b611060816109ee565b82525050565b600060208201905061107b6000830184611057565b9291505056fea26469706673582212202f039125bb8b6e53711d67654c80e3a3e153a5c6cf90425eabc178c789461ce864736f6c63430008140033",
  "linkReferences": {},
  "deployedLinkReferences": {}
}